:1000000000000120D90400002105000025050000A2
:100010001D0500001D0500001D050000000000007A
:10002000000000000000000000000000AD2C0000F7
:100030001D05000000000000AD2E00000D2F000087
:1000400035050000390500003D05000041050000B0
:1000500045050000490500004D0500005105000060
:1000600055050000590500005D0500006105000010
:1000700065050000690500006D05000071050000C0
:10008000750500001D0500001D0500001D05000090
:100090001D0500001D0500001D0500001D050000D8
:1000A000790500007D050000810500008505000040
:1000B000890500008D0500009105000095050000F0
:1000C000990500009D050000A1050000A5050000A0
:1000D000A90500001D0500001D0500001D0500000C
:1000E0001D0500001D0500001D0500001D05000088
:1000F0001D0500001D0500001D0500001D05000078
:100100001D0500001D0500001D0500001D05000067
:100110001D0500001D0500001D0500001D05000057
:1003F0001D0500001D0500001D050000FFFFFFFF9B
:10040000FFFFFFFFFFFFFFFFFFFFFFFFFEFFFFFFFD
:1004100010B5054C237833B9044B13B10448AFF33E
:1004200000800123237010BD8000FF1F000000002A
:100430004C8E000008B5064B1BB106480649AFF3C9
:1004400000800648036813B1054B03B1984708BD07
:10045000000000004C8E00008400FF1F7C00FF1F86
:1004600000000000154B002B08BF134B9D46A3F561
:10047000803A00218B460F461348144A121A07F09F
:10048000C6FF0F4B002B00D098470E4B002B00D01F
:1004900098470020002104000D000D48002802D0DC
:1004A0000C48AFF3008007F083FF2000290002F022
:1004B000B7F807F069FF00BF000008000000012046
:1004C00000000000000000008000FF1F5434FF1FE8
:1004D000000000000000000072B6094809490160F0
:1004E0000948804709490A4A0A4B9A42BEBF51F857
:1004F000040B42F8040BF8E762B607488047000097
:1005000008ED00E00000000089250000748E000066
:100510000000FF1F8000FF1F65040000FFF7FEBF03
:100520002248004722480047224800472248004707
:1005300022480047224800472248004722480047F7
:1005400022480047224800472248004722480047E7
:1005500022480047224800472248004722480047D7
:1005600022480047224800472248004722480047C7
:1005700022480047224800472248004722480047B7
:1005800022480047224800472248004722480047A7
:100590002248004722480047224800472248004797
:1005A0002248004722480047224800472105000012
:1005B00025050000AD2C0000AD2E00000D2F000021
:1005C000ED5A0000015B0000155B0000295B000094
:1005D0003D5B0000515B0000655B0000795B000043
:1005E0008D5B0000A15B0000B55B0000C95B0000F3
:1005F000DD5B0000F15B0000055C0000195C0000A1
:100600001D050000255D0000415D0000215900002E
:100610005D590000B5680000F1680000C16100008C
:100620001D6D00001D050000496D00001D05000046
:10063000756D00001D05000081F0004102E000BF63
:1006400083F0004330B54FEA41044FEA430594EA92
:10065000050F08BF90EA020F1FBF54EA000C55EACD
:10066000020C7FEA645C7FEA655C00F0E2804FEA9E
:100670005454D4EB5555B8BF6D420CDD2C4480EA80
:10068000020281EA030382EA000083EA010180EAB0
:10069000020281EA0303362D88BF30BD11F0004FFE
:1006A0004FEA01314FF4801C4CEA113102D0404234
:1006B00061EB410113F0004F4FEA03334CEA13336F
:1006C00002D0524263EB430394EA050F00F0A78087
:1006D000A4F10104D5F1200E0DDB02FA0EFC22FA82
:1006E00005F2801841F1000103FA0EF2801843FA76
:1006F00005F359410EE0A5F120050EF1200E012A67
:1007000003FA0EFC28BF4CF0020C43FA05F3C018A4
:1007100051EBE37101F0004507D54FF0000EDCF11D
:10072000000C7EEB00006EEB0101B1F5801F1BD3C6
:10073000B1F5001F0CD349085FEA30004FEA3C0CCA
:1007400004F101044FEA445212F5800F80F09A80C0
:10075000BCF1004F08BF5FEA500C50F1000041EBC4
:10076000045141EA050130BD5FEA4C0C404141EBC8
:10077000010111F4801FA4F10104E9D191F0000FEF
:1007800004BF01460020B1FA81F308BF2033A3F172
:100790000B03B3F120020CDA0C3208DD02F1140C69
:1007A000C2F10C0201FA0CF021FA02F10CE002F1A4
:1007B0001402D8BFC2F1200C01FA02F120FA0CFC9D
:1007C000DCBF41EA0C019040E41AA2BF01EB0451E6
:1007D000294330BD6FEA04041F3C1CDA0C340EDCE4
:1007E00004F11404C4F1200220FA04F001FA02F327
:1007F00040EA030021FA04F345EA030130BDC4F1E5
:100800000C04C4F1200220FA02F001FA04F340EAD9
:100810000300294630BD21FA04F0294630BD94F08A
:10082000000F83F4801306BF81F480110134013D71
:100830004EE77FEA645C18BF7FEA655C29D094EAE2
:10084000050F08BF90EA020F05D054EA000C04BF60
:100850001946104630BD91EA030F1EBF002100204B
:1008600030BD5FEA545C05D14000494128BF41F0EA
:10087000004130BD14F580043CBF01F5801130BD4E
:1008800001F0004545F0FE4141F470014FF00000D9
:1008900030BD7FEA645C1ABF194610467FEA655C8A
:1008A0001CBF0B46024650EA013406BF52EA03352C
:1008B00091EA030F41F4002130BD00BF90F0000F1A
:1008C00004BF0021704730B54FF4806404F1320456
:1008D0004FF000054FF0000150E700BF90F0000F0F
:1008E00004BF0021704730B54FF4806404F1320436
:1008F00010F0004548BF40424FF000013EE700BF06
:1009000042004FEAE2014FEA31014FEA02701FBF95
:1009100012F07F4393F07F4F81F06051704792F067
:10092000000F14BF93F07F4F704730B54FF46074E1
:1009300001F0004521F0004120E700BF50EA01022C
:1009400008BF704730B54FF000050AE050EA0102D9
:1009500008BF704730B511F0004502D5404261EB49
:1009600041014FF4806404F132045FEA915C3FF48A
:10097000DCAE4FF003025FEADC0C18BF03325FEA23
:10098000DC0C18BF033202EBDC02C2F1200300FAD8
:1009900003FC20FA02F001FA03FE40EA0E0021FAFD
:1009A00002F11444C1E600BF70B54FF0FF0C4CF4E7
:1009B000E06C1CEA11541DBF1CEA135594EA0C0F9D
:1009C00095EA0C0F00F0DEF82C4481EA030621EAD8
:1009D0004C5123EA4C5350EA013518BF52EA033513
:1009E00041F4801143F4801338D0A0FB02CE4FF0C5
:1009F0000005E1FB02E506F00042E0FB03E54FF0F5
:100A00000006E1FB03569CF0000F18BF4EF0010EEC
:100A1000A4F1FF04B6F5007F64F5407404D25FEAE8
:100A20004E0E6D4146EB060642EAC62141EA55519B
:100A30004FEAC52040EA5E504FEACE2EB4F1FD0CDD
:100A400088BFBCF5E06F1ED8BEF1004F08BF5FEA5B
:100A5000500E50F1000041EB045170BD06F000460D
:100A600046EA010140EA020081EA0301B4EB5C04BA
:100A7000C2BFD4EB0C0541EA045170BD41F48011B2
:100A80004FF0000E013C00F3AB8014F1360FDEBFD7
:100A9000002001F0004170BDC4F10004203C35DAB3
:100AA0000C341BDC04F11404C4F1200500FA05F336
:100AB00020FA04F001FA05F240EA020001F00042D7
:100AC00021F0004110EBD37021FA04F642EB06014D
:100AD0005EEA430E08BF20EAD37070BDC4F10C0477
:100AE000C4F1200500FA04F320FA05F001FA04F23B
:100AF00040EA020001F0004110EBD37041F1000127
:100B00005EEA430E08BF20EAD37070BDC4F1200531
:100B100000FA05F24EEA020E20FA04F301FA05F299
:100B200043EA020321FA04F001F0004121FA04F241
:100B300020EA020000EBD3705EEA430E08BF20EA11
:100B4000D37070BD94F0000F0FD101F0004640004B
:100B500041EB010111F4801F08BF013CF7D041EACD
:100B6000060195F0000F18BF704703F000465200D1
:100B700043EB030313F4801F08BF013DF7D043EAA2
:100B80000603704794EA0C0F0CEA135518BF95EA58
:100B90000C0F0CD050EA410618BF52EA4306D1D1DF
:100BA00081EA030101F000414FF0000070BD50EAFE
:100BB000410606BF1046194652EA430619D094EA88
:100BC0000C0F02D150EA013613D195EA0C0F05D172
:100BD00052EA03361CBF104619460AD181EA0301C6
:100BE00001F0004141F0FE4141F470014FF000007E
:100BF00070BD41F0FE4141F4780170BD70B54FF019
:100C0000FF0C4CF4E06C1CEA11541DBF1CEA135598
:100C100094EA0C0F95EA0C0F00F0A7F8A4EB05047A
:100C200081EA030E52EA03354FEA013100F0888071
:100C30004FEA03334FF0805545EA131343EA12633A
:100C40004FEA022245EA111545EA10654FEA0026EF
:100C50000EF000419D4208BF964244F1FD0404F5A8
:100C6000407402D25B084FEA3202B61A65EB030504
:100C70005B084FEA32024FF480104FF4002CB6EBC1
:100C8000020E75EB030E22BFB61A754640EA0C0041
:100C90005B084FEA3202B6EB020E75EB030E22BF81
:100CA000B61A754640EA5C005B084FEA3202B6EBC2
:100CB000020E75EB030E22BFB61A754640EA9C0081
:100CC0005B084FEA3202B6EB020E75EB030E22BF51
:100CD000B61A754640EADC0055EA060E18D04FEA0F
:100CE000051545EA16754FEA06164FEAC30343EAAF
:100CF00052734FEAC2025FEA1C1CC0D111F4801F7C
:100D00000BD141EA00014FF000004FF0004CB6E774
:100D100011F4801F04BF01430020B4F1FD0C88BF13
:100D2000BCF5E06F3FF6AFAEB5EB030C04BFB6EB1E
:100D3000020C5FEA500C50F1000041EB045170BD11
:100D40000EF0004E4EEA113114EB5C04C2BFD4EB3E
:100D50000C0541EA045170BD41F480114FF0000EC2
:100D6000013C90E645EA060E8DE60CEA135594EA3E
:100D70000C0F08BF95EA0C0F3FF43BAF94EA0C0F41
:100D80000AD150EA01347FF434AF95EA0C0F7FF4B6
:100D900025AF104619462CE795EA0C0F06D152EA0A
:100DA00003353FF4FDAE1046194622E750EA4106EE
:100DB00018BF52EA43067FF4C5AE50EA41047FF4FF
:100DC0000DAF52EA43057FF4EBAE12E74FF0FF3C64
:100DD00006E000BF4FF0010C02E000BF4FF0010C35
:100DE0004DF804CD4FEA410C7FEA6C5C4FEA430CAE
:100DF00018BF7FEA6C5C1BD001B050EA410C0CBFFD
:100E000052EA430C91EA030F02BF90EA020F00205E
:100E1000704710F1000F91EA030F58BF994208BFC5
:100E200090422CBFD8176FEAE37040F00100704782
:100E30004FEA410C7FEA6C5C02D150EA013C07D1D9
:100E40004FEA430C7FEA6C5CD6D152EA033CD3D024
:100E50005DF8040B704700BF8446104662468C461E
:100E60001946634600E000BF01B5FFF7B7FF002851
:100E700048BF10F1000F01BD4DF808EDFFF7F4FF7A
:100E80000CBF012000205DF808FB00BF4DF808ED05
:100E9000FFF7EAFF34BF012000205DF808FB00BF28
:100EA0004DF808EDFFF7E0FF94BF012000205DF84A
:100EB00008FB00BF4DF808EDFFF7CEFF94BF0120FF
:100EC00000205DF808FB00BF4DF808EDFFF7C4FFF8
:100ED00034BF012000205DF808FB00BF4FEA41024B
:100EE00012F5001215D211D56FF47873B3EB62527C
:100EF00012D94FEAC12343F0004343EA505311F0A3
:100F0000004F23FA02F018BF404270474FF0000034
:100F1000704750EA013005D111F0004008BF6FF072
:100F2000004070474FF00000704700BF73B96AB9C6
:100F3000002908BF0028BCBF00204FF00041C4BFFB
:100F40006FF000414FF0FF3000F08CB882B0EC46FB
:100F50002DE9005000F056F8DDF804E002B00CBCBA
:100F6000704700BF4BB942B9002908BF002802D022
:100F70004FF0FF31084600F075B882B0EC462DE91D
:100F8000005000F057F8DDF804E002B00CBC7047E8
:100F900038B50022002304460D46FFF777FF28B935
:100FA00020462946BDE8384000F00AB8204605F141
:100FB000004100F005F8404261EB410138BD00BF3F
:100FC00070B500220D4B04460D46FFF7EDFC00F016
:100FD0004BF80646FFF772FC0022094BFFF7E4FCD2
:100FE00002460B4620462946FFF72AFB00F03CF854
:100FF000002242EA00042046314670BD0000F03D68
:101000000000F0412DE97043069E14461D468046BF
:10101000894600F049F804FB01F300FB0533A4FB0B
:1010200000451D44B8EB040469EB0505C6E900451D
:10103000BDE870832DE97043069E144680468946BC
:101040001D4600F07DF900FB05F504FB0153A0FBF4
:1010500004451D44B8EB040469EB0505C6E90045E9
:10106000BDE87083704700BF4A0011D212F500122C
:1010700011D20DD56FF47873B3EB62520ED44FEAF0
:10108000C12343F0004343EA505323FA02F0704770
:101090004FF00000704750EA013002D14FF0FF30AE
:1010A00070474FF00000704700292DE9F00FC0F2A3
:1010B0009F800024002BC0F29680154606460F46FE
:1010C000002B3ED18A4257D9B2FA82F34BB1C3F119
:1010D000200201FA03F720FA02F29D40174300FABA
:1010E00003F6290CB7FBF1F2330C01FB127CA8B21A
:1010F00043EA0C4700FB02F3BB4209D97F1902F116
:10110000FF3C80F00181BB4240F2FE80023A2F4456
:10111000FF1AB7FBF1F3B6B201FB137146EA0141C6
:1011200000FB03F0884208D9491903F1FF3780F02A
:10113000ED80884240F2EA80023B43EA024200230B
:1011400003E08B420AD900231A461046194614B10F
:10115000404261EB4101BDE8F00F7047B3FA83F8FC
:10116000B8F1000F40F084808B4202D3824200F23B
:10117000DE8000230122E8E712B90123B3FBF2F578
:10118000B5FA85F2002A39D17F1B280C1FFA85FC9D
:101190000123B7FBF0F1320C00FB117742EA07475D
:1011A0000CFB01F2BA4207D97F1901F1FF3802D2D4
:1011B000BA4200F2C1804146BF1AB7FBF0F2B6B2A4
:1011C00000FB127046EA00400CFB02FC844507D984
:1011D000401902F1FF3702D2844500F2AB803A4653
:1011E00042EA0142B1E7E443524263EB430364E75E
:1011F000404261EB41014FF0FF345BE79540C2F1A3
:10120000200327FA03F1280C26FA03F39740B1FBD9
:10121000F0F81F433B0C00FB18111FFA85FC43EA52
:1012200001410CFB08F38B4206FA02F608D9491972
:1012300008F1FF3279D28B4277D9A8F1020829440C
:10124000C91AB1FBF0F3BFB200FB131147EA014723
:101250000CFB03F2BA4207D97F1903F1FF3160D2C8
:10126000BA425ED9023B2F44BF1A43EA084390E7D3
:10127000C8F1200203FA08FC25FA02F343EA0C0C39
:101280004FEA1C4921FA02F301FA08F720FA02F2A8
:10129000B3FBF9F1174309FB11333A0C1FFA8CFB2E
:1012A00042EA03430BFB01FA9A4505FA08F008D914
:1012B00013EB0C0301F1FF3235D29A4533D90239D1
:1012C0006344CAEB0303B3FBF9F209FB1233BFB269
:1012D00047EA03470BFB02F9B94508D917EB0C079E
:1012E00002F1FF331BD2B94519D9023A674442EAE9
:1012F0000145A5FB0001C9EB07078F424FF0000332
:101300000AD305D02A4620E7624601E73B4614E7A8
:1013100006FA08F68642F5D26A1E002315E71A4639
:10132000E5E70B46A0E71146CBE7904688E7434642
:1013300042460AE7023A53E702392F443CE700BF2E
:101340002DE9F00F144605460E46002B43D18A4284
:1013500053D9B2FA82F757B1C7F1200620FA06F640
:1013600001FA07F302FA07F41E4300FA07F5210C0D
:10137000B6FBF1F22B0C01FB1267A0B243EA074661
:1013800000FB02F3B34209D9361902F1FF3780F0AE
:10139000F680B34240F2F380023A2644F61AB6FBD6
:1013A000F1F3ADB201FB136145EA014100FB03F02B
:1013B000884208D9091903F1FF3680F0E28088429B
:1013C00040F2DF80023B43EA024200231046194606
:1013D000BDE8F00F70478B424AD8B3FA83F6002E6F
:1013E0004DD18B4202D3824200F2D68000230122EB
:1013F00010461946BDE8F00F704712B90124B4FB3E
:10140000F2F4B4FA84F2002A7CD1091B260CA7B2AC
:101410000123B1FBF6F02A0C06FB101142EA014150
:1014200007FB00F28A4207D9091900F1FF3C02D2FA
:101430008A4200F2C3806046891AB1FBF6F2ADB26F
:1014400006FB121145EA014507FB02F7AF4208D936
:101450002C1902F1FF3180F09680A74240F2938070
:10146000023A42EA004210461946BDE8F00F7047C2
:1014700000231A4610461946BDE8F00F7047C6F122
:10148000200522FA05F4B3401C434FEA144821FA20
:1014900005F301FA06F720FA05F5B3FBF8FC2F4334
:1014A00008FB1C333D0C1FFA84FA45EA03430AFB90
:1014B0000CF9994502FA06FB04D91B190CF1FF320D
:1014C0006DD39446C9EB0303B3FBF8F508FB153362
:1014D000BFB247EA03470AFB05F8B84504D93F19EC
:1014E00005F1FF3361D31D4645EA0C4CACFB0B23E1
:1014F000C8EB07079F424FF0000549D345D062462D
:101500002B4663E79440C2F1200321FA03FC260C2A
:1015100020FA03F301FA02F5BCFBF6F843EA0501F1
:101520000B0C06FB18CCA7B243EA0C4C07FB08F3E4
:10153000634500FA02F509D91CEB040C08F1FF32EF
:101540003AD2634538D9A8F10208A444C3EB0C0C85
:10155000BCFBF6F389B206FB13CC41EA0C4107FB56
:1015600003F28A4207D9091903F1FF3022D28A42D5
:1015700020D9023B2144891A43EA084349E73A4605
:101580000CE733461FE70A466BE7B0409042B6D2FD
:101590000CF1FF32002319E73346324616E799452E
:1015A0008FD9ACF1020C23448CE7B8459BD9023D9E
:1015B000274499E70346DEE79046C7E7023821440F
:1015C0003AE700BF80B483B000AF78600B46FB7091
:1015D000FB78002B08D07B68DB78DBB243F0080394
:1015E000DAB27B68DA7007E07B68DB78DBB223F085
:1015F0000803DAB27B68DA700C37BD465DF8047B0D
:10160000704700BF80B483B000AF78600B46FB70BA
:10161000FB78002B08D07B68DB78DBB243F0040357
:10162000DAB27B68DA7007E07B68DB78DBB223F044
:101630000403DAB27B68DA700C37BD465DF8047BD0
:10164000704700BF80B483B000AF78600B46FB707A
:10165000FB78002B06D07B689B6843F400227B68F4
:101660009A6005E07B689B6823F400227B689A609F
:101670000C37BD465DF8047B704700BF80B483B073
:1016800000AF78600B46FB70FB78002B06D07B68C0
:101690009B6843F480227B689A6005E07B689B68C6
:1016A00023F480227B689A600C37BD465DF8047B8A
:1016B000704700BF80B58AB000AFF860B9603B608A
:1016C0001346FB71304B1B78002B01D0012357E0F0
:1016D0002D4BFA791A70FB79012B02D0022B26D000
:1016E0004BE0FA68284B5A6007F11C03184605F0D6
:1016F00055FABB68FB61244B5A6807F11C0310467E
:1017000019463A6805F05CF91F4B5B6818460121E1
:10171000FFF758FF1C4B5B6818460121FFF772FF6B
:10172000194B1A4A9A60184B194ADA6027E0FA688E
:10173000154B5A6007F11403184604F04FFCBB68C0
:101740007B61114B5A6807F11403104619463A6839
:1017500004F046FB0C4B5B6818460121FFF772FF53
:10176000094B5B6818460121FFF788FF064B094AC1
:101770009A60054B084ADA6001E0042300E0002388
:1017800018462837BD4680BD9C00FF1F396C0000FD
:10179000796C0000D1600000116100000FB480B5C9
:1017A00082B000AF0B4B1B78002B02D14FF0FF3300
:1017B00009E007F114033B60074839693A6800F013
:1017C00093FA78607B6818460837BD46BDE88040CC
:1017D00004B070479C00FF1FDD17000080B582B089
:1017E00000AF78600A4B1B78002B02D14FF0FF331B
:1017F00009E0074B9B68064A51683A1D08461146A6
:1018000001229847012318460837BD4680BD00BF16
:101810009C00FF1F80B586B000AFB9607A603B6066
:101820000346FB73BB687B610CE097F90F203B6AB2
:10183000104698473B681B685A1C3B681A607B69D6
:1018400001337B617A697B689A42EEDB1837BD46CB
:1018500080BD00BF80B592B000AFF860B9607A601B
:101860003B6000237B62FB683B623B6A5A1C3A6226
:1018700000221A707B68002B65D0BB68D3E9002377
:10188000C7E91023D7E9102352EA030107D13B6AC5
:1018900030221A707B6A01337B627B6AC1E04CE0C4
:1018A0003B681A464FEAE273D7E91001FFF73EFBA7
:1018B00002460B46C7E906233B681A464FEAE27325
:1018C000B96903FB01F0F96902FB01F10144B86950
:1018D000A0FB022319440B46D7E91001821A61EBE1
:1018E0000303C7E90E23D7E90E23002A73F1000191
:1018F0000FDAD7E90E23C7E90A23D7E90A234FF005
:1019000030004FF00001821A61EB0303C7E90E2398
:1019100006E0D7E90E23303243F10003C7E90E2376
:10192000D7E90623C7E910233B6A5A1C3A6297F8A5
:1019300038201A707B6A01337B62D7E9102352EAA0
:101940000301ADD16CE0BB68D3E90023C7E90C23E8
:10195000D7E90C2352EA030107D13B6A30221A70FF
:101960007B6A01337B627B6A5BE054E03B681A462A
:101970004FEAE273D7E90C01FFF7F4FA02460B468F
:10198000C7E904233B681A464FEAE273396903FB4F
:1019900001F0796902FB01F101443869A0FB0223DF
:1019A00019440B46D7E90C01821A61EB0303C7E91E
:1019B0000A23D7E90A23002B08BF0A2A07D2D7E94E
:1019C0000A23303243F10003C7E90A2316E097F8EF
:1019D0005030002B04D04FF041024FF0000303E0E1
:1019E0004FF061024FF00003D7E90A01121843EBF0
:1019F00001030A3A43F1FF33C7E90A23D7E9042375
:101A0000C7E90C233B6A5A1C3A6297F828201A70DF
:101A10007B6A01337B62D7E90C2352EA0301A5D12B
:101A20007B6A18464837BD4680BD00BF00000000F5
:101A3000B0B598B000AFF860B9607A603B60002341
:101A4000FB63FB68BB63BB6B5A1CBA6300221A7052
:101A5000BB68D3E90023C7E90C23D7E90C014FF099
:101A600000024FF00003FFF707FA0346002B07D0F0
:101A7000BB6B30221A70FB6B0133FB63FB6B23E102
:101A800007F1100397ED0C0B184605F0C5FA87ED2A
:101A9000100B00237B650FE07868FEF71FFF0246FE
:101AA0000B46D7E91001FEF77FFF02460B46C7E958
:101AB00010237B6D01337B657A6D3B689A42EBD3D3
:101AC000D7E90C014FF000024FF00003FFF7F2F9E5
:101AD0000346002B2FD0D7E910014FF00002804BB6
:101AE000FEF7B0FD02460B46C7E912233868FEF741
:101AF000E5FE02460B469FED760B43EC112B05F0FD
:101B0000DDFA53EC102B10461946D7E91223FFF7E4
:101B1000C7F90346002B00D13BE0D7E90423104668
:101B200019464FF000026F4BFEF78CFD02460B4644
:101B3000C7E904232DE0D7E910014FF00002684BFC
:101B4000FEF77EFD02460B46C7E912233868FEF712
:101B5000B5FE02460B469FED600B43EC112B05F0E2
:101B6000ADFA53EC102B10461946D7E91223FFF7B4
:101B7000A1F90346002B0CD0D7E9042310461946DF
:101B80004FF00002574BFEF75BFD02460B46C7E9DC
:101B9000042300237B654EE07868FEF79FFE024633
:101BA0000B46D7E91201FFF729F802460B46C7E9B1
:101BB0000A23D7E90A01FFF7EBF97B681A464FEAD7
:101BC000E27302FB01F500FB03F42C44A0FB0223AB
:101BD000E1180B4610461946FEF7B8FE02460B46C2
:101BE000D7E91201FEF72CFD02460B46C7E9082390
:101BF000D7E90801FFF772F90346BB65BB6D002BFF
:101C000006DABB6DFB61FB69C3F13003BB6502E023
:101C1000BB6D3033BB65D7E90A23C7E91223BB6B21
:101C20005A1CBA63BA6DD2B21A70FB6B0133FB63F4
:101C30007B6D01337B657A6D3B689A42ACD3BB6B9D
:101C40005A1CBA632E221A70FB6B0133FB63D7E96F
:101C5000042310461946FFF741F90346FB65FB6D67
:101C6000002B08D1BB6B5A1CBA6330221A70FB6B75
:101C70000133FB6327E023E0FA6D7B6892FBF3F30B
:101C8000BB61BB697A6802FB03F3FA6DD31ABB65CB
:101C9000BB6D002B06DABB6DFB61FB69C3F1300342
:101CA000BB6502E0BB6D3033BB65BB69FB65BB6BDD
:101CB0005A1CBA63BA6DD2B21A70FB6B0133FB6364
:101CC000FB6D002BD8D1FB6B18466037BD46B0BD0D
:101CD000000000000000244000000000000024C0BC
:101CE0000000E03F0000F03F80B5A4B002AFF86014
:101CF000B9607A600023C7F880300023FB670023B7
:101D0000FB62002387F86A304FF000024FF00003B7
:101D1000C7E90623BB68C7F8843000F027BCBB6D59
:101D2000252B07D0FB68B86D9847FB6A0133FB622F
:101D300000F017BC012387F86B3000237B6600237B
:101D4000BB6752E0D7F884300133C7F88430D7F846
:101D500084301B785BB2203B102B3ED801A151F898
:101D600023F000BFBD1D0000DB1D0000DB1D0000D7
:101D7000D11D0000DB1D0000DB1D0000DB1D00008D
:101D8000DB1D0000DB1D0000DB1D0000DB1D000073
:101D9000B31D0000DB1D0000A91D0000DB1D0000BD
:101DA000DB1D0000C71D00007B6E43F001037B6656
:101DB0001BE07B6E43F002037B6616E07B6E43F014
:101DC00004037B6611E07B6E43F008037B660CE046
:101DD0007B6E43F010037B6607E0D7F88430013B4D
:101DE000C7F884300123BB6700BFBB6F002BA9D0AD
:101DF00000237B670023BB6721E0D7F884300133E1
:101E0000C7F88430D7F884301B785BB2BB65BB6DF4
:101E10002F2B0DDDBB6D392B0ADC7A6F13469B002F
:101E200013445B001A46BB6D1344303B7B6706E0EE
:101E3000D7F88430013BC7F884300123BB67BB6F00
:101E4000002BDAD006233B67D7F884300133C7F87C
:101E50008430D7F884301B785BB22E2B2AD1002334
:101E60003B670023BB6721E0D7F884300133C7F814
:101E70008430D7F884301B785BB2BB65BB6D2F2BE9
:101E80000DDDBB6D392B0ADC3A6F13469B00134402
:101E90005B001A46BB6D1344303B3B6706E0D7F846
:101EA0008430013BC7F884300123BB67BB6F002B34
:101EB000DAD004E0D7F88430013BC7F88430D7F893
:101EC00084300133C7F88430D7F884301B785BB294
:101ED000682B02D06C2B1AD033E0D7F88430013352
:101EE000C7F88430D7F884301B785BB2682B09D0F0
:101EF0007B6E43F040037B66D7F88430013BC7F824
:101F0000843024E07B6E43F020037B661FE0D7F82B
:101F100084300133C7F88430D7F884301B785BB243
:101F20006C2B09D07B6E43F080037B66D7F884303E
:101F3000013BC7F884300AE07B6E43F480737B6614
:101F400005E0D7F88430013BC7F8843000BFD7F8EC
:101F500084300133C7F88430D7F884301B785BB203
:101F6000BB65BB6D642B1BD0BB6D692B18D0BB6DE3
:101F7000662B15D0BB6D462B12D0BB6D782B0FD0C6
:101F8000BB6D582B0CD0BB6D6F2B09D0BB6D622B7A
:101F900006D0BB6D702B03D0BB6D752B40F08C82CF
:101FA000BB6D642B03D0BB6D692B40F095807B6EBD
:101FB00003F48073002B0BD07B68073323F00703F7
:101FC00003F108027A60D3E90023C7E9082308E097
:101FD0007B681A1D7A601B681A464FEAE273C7E9EC
:101FE000082307F1300207F1200397F86B100091E6
:101FF0001046194601220A23FFF72CFCF86707F167
:102000003002FB6F1344C7F88030D7E90823002A59
:1020100073F1000105DA2D233B66FB6F0133FB678B
:1020200017E07B6E03F00203002B05D02B233B66E9
:10203000FB6F0133FB670CE07B6E03F00403002BA6
:1020400005D020233B66FB6F0133FB6701E00023D3
:102050003B660023FB657B6E03F00803002B16D064
:102060003B6E002B05D0FB68386E9847FB6A013346
:10207000FB620123FB657A6F07F12C03F96800917D
:102080003020F96FFFF7C6FB7B6FFB6718E07B6EB4
:1020900003F00103002B13D17A6F07F12C03F968C9
:1020A00000912020F96FFFF7B5FB3B6E002B05D0A8
:1020B000FB68386E9847FB6A0133FB620123FB65BE
:1020C000FB6D002B08D13B6E002B05D0FB68386EF2
:1020D0009847FB6A0133FB62BB6D662B03D0BB6D77
:1020E000462B40F08A807B68073323F0070303F117
:1020F00008027A60D3E90023C7E9042307F130021C
:1021000007F11003104619460A223B6FFFF790FCB7
:10211000F86707F13002FB6F1344C7F88030D7E946
:102120000423104619464FF000024FF00003FEF75B
:10213000ADFE0346002B05D02D233B66FB6F01331C
:10214000FB6717E07B6E03F00203002B05D02B2307
:102150003B66FB6F0133FB670CE07B6E03F004030F
:10216000002B05D020233B66FB6F0133FB6701E0AA
:1021700000233B660023FB657B6E03F00803002B06
:1021800016D03B6E002B05D0FB68386E9847FB6A73
:102190000133FB620123FB657A6F07F12C03F968B9
:1021A00000913020F96FFFF735FB7B6FFB6718E07C
:1021B0007B6E03F00103002B13D17A6F07F12C0320
:1021C000F96800912020F96FFFF724FB3B6E002B8C
:1021D00005D0FB68386E9847FB6A0133FB62012328
:1021E000FB65FB6D002B08D13B6E002B05D0FB6817
:1021F000386E9847FB6A0133FB62BB6D582B03D0E6
:10220000BB6D782B40F0A680BB6D782B02D10023EC
:1022100087F86B307B6E03F48073002B0BD07B68E8
:10222000073323F0070303F108027A60D3E90023A0
:10223000C7E9062308E07B681A1D7A601B681A4606
:102240004FF00003C7E9062307F1300207F1180336
:1022500097F86B1000911046194600221023FFF7E3
:10226000F9FAF86707F13002FB6F1344C7F88030C2
:102270000023FB657B6E03F00803002B22D07B6EEE
:1022800003F01003002B11D0FB683020984797F81B
:102290006B30002B01D0582300E07823FA681846F1
:1022A0009047FB6A0233FB620123FB657A6F07F1FB
:1022B0002C03F96800913020F96FFFF7ABFA7B6FC0
:1022C000FB672CE07B6E03F00103002B27D17B6EB4
:1022D00003F01003002B02D0FB6F0233FB677A6F11
:1022E00007F12C03F96800912020F96FFFF792FAAB
:1022F0007B6E03F01003002B11D0FB683020984751
:1023000097F86B30002B01D0582300E07823FA684F
:1023100018469047FB6A0233FB620123FB657B6E24
:1023200003F01003002B15D0FB6D002B12D1FB68BE
:102330003020984797F86B30002B01D0582300E0ED
:102340007823FA6818469047FB6A0233FB62FB6FFA
:102350000233FB67BB6D6F2B0BD17B681A1D7A6054
:102360001B681A464FF00003C7E90623082387F8C5
:102370006A30BB6D622B11D17B681A1D7A601B68B5
:102380001A464FF00003C7E90623022387F86A3094
:1023900007F13002FB6F1344C7F88030BB6D702B20
:1023A00011D17B681A1D7A601B681A464FF0000332
:1023B000C7E90623102387F86A3007F13002FB6F64
:1023C0001344C7F88030BB6D752B11D17B681A1D83
:1023D0007A601B681A464FF00003C7E906230A23F8
:1023E00087F86A3007F13002FB6F1344C7F880307A
:1023F000BB6D6F2B08D0BB6D622B05D0BB6D702BF6
:1024000002D0BB6D752B34D197F86A3007F13001DB
:1024100007F1180297F86B00009008461146002259
:10242000FFF718FAF86707F13002FB6F1344C7F89B
:1024300080307B6E03F00803002B0BD07A6F07F11E
:102440002C03F96800913020F96FFFF7E3F97B6FF7
:10245000FB670EE07B6E03F00103002B09D17A6F5E
:1024600007F12C03F96800912020F96FFFF7D2F9EA
:102470000DE00CE0D7F880305A1EC7F880201B789A
:102480005AB2FB6810469847FB6A0133FB62D7F8E3
:1024900080301B78002BEDD17B6E03F00103002B05
:1024A00009D07A6F07F12C03F96800912020F96FA9
:1024B000FFF7B0F955E054E0BB6D632B0DD17B689D
:1024C0001A1D7A601B68DBB25BB27B65FB68786DB6
:1024D0009847FB6A0133FB6243E0BB6D732B3AD133
:1024E0007B681A1D7A601B68FB66FB6E002B38D078
:1024F000F86E05F094FF0346FB677B6E03F0010363
:10250000002B09D17A6F07F12C03F9680091202084
:10251000F96FFFF77FF90BE00AE0FB6E5A1CFA66D1
:102520001B785AB2FB6810469847FB6A0133FB627E
:10253000FB6E1B78002BF0D17B6E03F00103002BA8
:102540000FD07A6F07F12C03F96800912020F96F02
:10255000FFF760F905E0FB68B86D9847FB6A013347
:10256000FB62D7F884300133C7F88430D7F8843061
:102570001B785BB2BB65BB6D002B7FF4D0ABFB6AF5
:1025800018468837BD4680BD80B400AF0B4B0B4A60
:10259000D2F8882042F47002C3F88820084B4CF22D
:1025A0002052DA81064B4DF62812DA81044B4FF4A3
:1025B000E9721A80BD465DF8047B704700ED00E0CB
:1025C0000020054080B483B000AF786039607B683C
:1025D0003A685A600C37BD465DF8047B704700BF0F
:1025E00080B483B000AF786039607B683A689A60E5
:1025F0000C37BD465DF8047B704700BF80B483B0E4
:1026000000AF786039607B681A693B6822FA03F38F
:1026100003F0010318460C37BD465DF8047B704794
:1026200080B584B004AF04F02BFC04F0B1FC04F0DE
:10263000C5FB04F0E3FC0023009300230193002377
:102640000293002303930C480C495A22002301F003
:102650003FFA0423009300230193002302930023F5
:102660000393074807495A22002301F031FA01F089
:10267000D9FB00BFFDE700BF89260000548500009C
:10268000452700006085000080B584B000AF786009
:102690000023FB60FB680133FB602748F968FFF704
:1026A0007DF826484FF48061FFF78CFF4FF47A7273
:1026B00013469B0013445B001A46214BA3FB0213F5
:1026C0005B09184601F0D4FA1C484FF48061FFF70B
:1026D00087FF4FF47A7213465B0013449B001A4441
:1026E000174BA3FB02135B09184601F0C1FA13480C
:1026F0004FF48061FFF766FF4FF47A7213465B0078
:1027000013449B001A460E4BA3FB02135B091846A9
:1027100001F0AEFA09484FF48061FFF761FF4FF412
:102720007A7213469B011A44054BA3FB02135B0903
:10273000184601F09DFAADE76C85000080F00F406F
:102740001F85EB5180B584B000AF78600023FB603B
:102750000023BB6001200021032200F073FD02462C
:102760001C4B1A601B4B1B68002B0AD101F048FC64
:10277000034619481946FFF711F8002001F0CAFA7C
:1027800024E016480521FFF739FFF860FB68002BAD
:1027900003D1642001F06CFAF3E700F023F8B8608D
:1027A00000BF0C4B1B68184600210022002300F0DC
:1027B000A3FD01F025FC034609481946BA68FEF757
:1027C000EDFF4FF47A7001F053FADAE71037BD46A7
:1027D00080BD00BF0034FF1F7885000000F00F406F
:1027E000B885000080B584B000AF4FF0FF33FB60C8
:1027F0001A4A3B1D92E803001860043319703B1D10
:1028000017481946042204F017FA07F10B0314487D
:102810001946012204F030FA07F10B03184605F0BF
:10282000A9FDF86007F10B030D481946012204F0D9
:1028300023FAFB7A5BB20A2B04D100BFFB68002BA2
:1028400006DB00E0EEE7FB68082B01DCFB6801E03B
:102850006FF0020318461037BD4680BDD4850000D6
:1028600000B0064080B58AB000AF78600023FB61FD
:1028700001F024FB574B1B68002B01D100F00CF931
:10288000554B1A687B681340002B40F08C807B68A6
:10289000002B1CD008237A6813447B607B6803F00C
:1028A0000703002B13D07B6823F0070308337B60FA
:1028B0007B6803F00703002B09D04FF0500383F32C
:1028C0001188BFF36F8FBFF34F8F7B61FEE77B688B
:1028D000002B68D0414B1B687A689A4263D8404B02
:1028E0003B623F4B1B687B6204E07B6A3B627B6A16
:1028F0001B687B627B6A5A687B689A4203D27B6A58
:102900001B68002BF1D1334B1B687A6A9A424AD07C
:102910003B6A1A6808231344FB617B6A1A683B6AA6
:102920001A607B6A5A687B68D21A08235B009A4255
:102930001ED97A6A7B681344BB61BB6903F0070345
:10294000002B09D04FF0500383F31188BFF36F8F32
:10295000BFF34F8F3B61FEE77B6A5A687B68D21AF0
:10296000BB695A607B6A7A685A60B86900F0F6F809
:102970001A4B1A687B6A5B68D21A184B1A60174B9D
:102980001A68184B1B689A4203D2144B1A68154BED
:102990001A607B6A5A68104B1B681A437B6A5A603C
:1029A0007B6A00221A6001F097FAFB6903F00703C3
:1029B000002B09D04FF0500383F31188BFF36F8FC2
:1029C000BFF34F8FFB60FEE7FB6918462837BD4613
:1029D00080BD00BFB428FF1FC028FF1FB828FF1FFD
:1029E000AC28FF1FBC28FF1F80B586B000AF786001
:1029F0007B687B617B68002B46D008235B427A6949
:102A000013447B617B693B613B695A68204B1B68BF
:102A10001340002B09D14FF0500383F31188BFF30B
:102A20006F8FBFF34F8FFB60FEE73B691B68002B86
:102A300009D04FF0500383F31188BFF36F8FBFF3BA
:102A40004F8FBB60FEE73B695A68114B1B68134010
:102A5000002B19D03B691B68002B15D13B695A68C4
:102A60000B4B1B68DB431A403B695A6001F026FAA6
:102A70003B695A68074B1B681A44064B1A60386951
:102A800000F06CF801F028FA1837BD4680BD00BF91
:102A9000C028FF1FB828FF1F80B485B000AF4FF4D7
:102AA0002053BB60274BFB60FB6803F00703002B40
:102AB0000CD0FB680733FB60FB6823F00703FB6067
:102AC000BA68FB68D21A1F4B1344BB60FB687B607B
:102AD0001D4B7A681A601C4B00225A607A68BB68EA
:102AE0001344FB600823FA68D31AFB60FB6823F0E9
:102AF0000703FB60FA68154B1A60144B1B68002231
:102B00005A60124B1B6800221A607B683B603B686E
:102B1000FA68D21A3B685A600C4B1A683B681A6014
:102B20003B685A680A4B1A603B685A68094B1A603E
:102B3000094B4FF000421A601437BD465DF8047B24
:102B4000704700BFAC00FF1FAC28FF1FB428FF1F59
:102B5000BC28FF1FB828FF1FC028FF1F80B485B006
:102B600000AF7860274BFB6002E0FB681B68FB60EE
:102B7000FB681A687B689A42F7D3FB68BB60FB6806
:102B80005B68BA681A447B689A4208D1FB685A6845
:102B90007B685B681A44FB685A60FB687B607B68F3
:102BA000BB607B685B68BA681A44FB681B689A4222
:102BB00018D1FB681A68144B1B689A420DD07B68C9
:102BC0005A68FB681B685B681A447B685A60FB683C
:102BD0001B681A687B681A6008E00B4B1A687B68F0
:102BE0001A6003E0FB681A687B681A60FA687B6801
:102BF0009A4202D0FB687A681A601437BD465DF8C5
:102C0000047B7047AC28FF1FB428FF1F80B485B039
:102C100000AFF860B9607A60FB68043BFB60FB685A
:102C20004FF080721A60FB68043BFB60BA68FB6877
:102C30001A60FB68043BFB600C4AFB681A60FB6887
:102C4000143BFB607A68FB681A60FB68043BFB601E
:102C5000FB686FF002021A60FB68203BFB60FB68B8
:102C600018461437BD465DF8047B7047712C000090
:102C700080B483B000AF0C4B1B68B3F1FF3F09D0A9
:102C80004FF0500383F31188BFF36F8FBFF34F8F63
:102C90007B60FEE74FF0500383F31188BFF36F8F23
:102CA000BFF34F8F3B60FEE70400FF1F064B196820
:102CB0000868B0E8F04F80F30988BFF36F8F4FF0DA
:102CC000000080F311887047CC28FF1F0648006879
:102CD000006880F3088862B661B6BFF34F8FBFF318
:102CE0006F8F00DF00BF000008ED00E080B586B008
:102CF00000AF3B4B1A683B4B9A4209D14FF050034F
:102D000083F31188BFF36F8FBFF34F8F3B61FEE7F3
:102D1000334B1A68344B9A4209D14FF0500383F376
:102D20001188BFF36F8FBFF34F8FFB60FEE72F4B10
:102D30007B617B691B78DBB2BB607B69FF221A7009
:102D40007B691B78DBB2FB71FB79DBB203F05003CC
:102D5000DAB2274B1A70274B07221A6009E0254B7D
:102D60001B685A1E234B1A60FB79DBB25B00DBB297
:102D7000FB71FB79DBB2DBB25BB2002BEFDB1D4BEF
:102D80001B681A021B4B1A601A4B1B6803F4E062A3
:102D9000184B1A60BB68DAB27B691A70164B164A78
:102DA000126842F470021A60134B134A126842F020
:102DB00070421A6000F0CCF8104B00221A6000F04C
:102DC000E1F80F4B0E4A126842F040421A60FFF7DA
:102DD0007DFFFFF74DFF002318461837BD4680BD25
:102DE00000ED00E071C20F4170C20F4100E400E04D
:102DF000C428FF1FC828FF1F20ED00E00400FF1FAC
:102E000034EF00E080B483B000AF4FF0500383F3A1
:102E10001188BFF36F8FBFF34F8F7B600E4B1B6822
:102E20005A1C0D4B1A600C4B1B68012B0ED10B4B1F
:102E30001B68DBB2002B09D04FF0500383F31188DD
:102E4000BFF36F8FBFF34F8F3B60FEE70C37BD467C
:102E50005DF8047B704700BF0400FF1F04ED00E035
:102E600080B483B000AF104B1B68002B09D14FF02A
:102E7000500383F31188BFF36F8FBFF34F8F7B60D5
:102E8000FEE7094B1B685A1E074B1A60064B1B686E
:102E9000002B04D100233B603B6883F311880C377F
:102EA000BD465DF8047B70470400FF1FEFF3098007
:102EB000BFF36F8F144B1A681EF0100F08BF20ED80
:102EC000108A20E9F04F10604DF8043D4FF050009B
:102ED00080F31188BFF34F8FBFF36F8F01F04EF96E
:102EE0004FF0000080F3118808BC19680868B0E84A
:102EF000F04F1EF0100F08BFB0EC108A80F3098865
:102F0000BFF36F8F704700BFCC28FF1F80B584B020
:102F100000AFEFF311824FF0500383F31188BFF33A
:102F20006F8FBFF34F8FFA60BB6001F079F80346F3
:102F3000002B03D0054B4FF080521A6000237B60BA
:102F40007B6883F311881037BD4680BD04ED00E037
:102F500080B400AF074B084A1168084AA2FB01027F
:102F60009209013A1A60064B07221A60BD465DF8C5
:102F7000047B704714E000E00000FF1FD34D621097
:102F800010E000E0DFF80C00016841F4700101601E
:102F90007047000088ED00E080B485B000AFEFF32B
:102FA0000583FB60FB680F2B13D9154AFB6813449C
:102FB0001B78FB72134B1B78FA7A9A4209D24FF0B6
:102FC000500383F31188BFF36F8FBFF34F8F7B6084
:102FD000FEE70D4B1B6803F4E0620C4B1B689A4242
:102FE00009D94FF0500383F31188BFF36F8FBFF3FC
:102FF0004F8F3B60FEE71437BD465DF8047B70479A
:10300000F0E300E0C428FF1F0CED00E0C828FF1F1C
:1030100080B483B000AF78607B6803F108027B68FE
:103020005A607B684FF0FF329A607B6803F10802B8
:103030007B68DA607B6803F108027B681A617B6851
:1030400000221A600C37BD465DF8047B704700BF54
:1030500080B483B000AF78607B6800221A610C37BF
:10306000BD465DF8047B704780B485B000AF7860E2
:1030700039607B685B68FB603B68FA685A60FB6894
:103080009A683B689A60FB689B683A685A60FB687C
:103090003A689A603B687A681A617B681B685A1CB8
:1030A0007B681A601437BD465DF8047B704700BF2B
:1030B00080B485B000AF786039603B681B68BB6046
:1030C000BB68B3F1FF3F03D17B681B69FB600CE079
:1030D0007B680833FB6002E0FB685B68FB60FB68B1
:1030E0005B681A68BB689A42F6D9FB685A683B6805
:1030F0005A603B685B683A689A603B68FA689A6015
:10310000FB683A685A603B687A681A617B681B689A
:103110005A1C7B681A601437BD465DF8047B704703
:1031200080B485B000AF78607B681B69FB607B680A
:103130005B687A6892689A607B689B687A68526874
:103140005A60FB685A687B689A4203D17B689A6828
:10315000FB685A607B6800221A61FB681B685A1E74
:10316000FB681A60FB681B6818461437BD465DF89B
:10317000047B704780B584B000AF786039607B68AD
:10318000FB60FB68002B09D14FF0500383F31188DB
:10319000BFF36F8FBFF34F8FBB60FEE7FFF732FEC9
:1031A000FB681A68FB68DB6BF968096C01FB03F3C9
:1031B0001A44FB685A60FB6800229A63FB681A682D
:1031C000FB689A60FB681A68FB68DB6B013BF96877
:1031D000096C01FB03F31A44FB68DA60FB684FF0EB
:1031E000FF325A64FB684FF0FF329A643B68002B51
:1031F00014D1FB681B69002B1AD0FB6810331846EA
:1032000001F0B2F80346012B12D10D4B4FF0805262
:103210001A60BFF34F8FBFF36F8F09E0FB68103365
:103220001846FFF7F5FEFB6824331846FFF7F0FE5B
:10323000FFF716FE012318461037BD4680BD00BFBC
:1032400004ED00E080B58AB000AFF860B9601346C5
:10325000FB7100233B62FB68002B09D14FF0500348
:1032600083F31188BFF36F8FBFF34F8FBB61FEE70E
:10327000BB68002B02D100237B6205E0FB68BA68C3
:1032800002FB03F301337B627B6A54331846FFF77A
:10329000E9FAF861FB69002B1BD0BB68002B03D156
:1032A000FB69FA691A6004E0FB6903F15402FB69E7
:1032B0001A60FB69FA68DA63FB69BA681A64F8692C
:1032C0000121FFF757FFFB69FA7983F85020FB696A
:1032D0003B623B6A002B09D14FF0500383F3118806
:1032E000BFF36F8FBFF34F8F7B61FEE73B6A1846DA
:1032F0002837BD4680BD00BF80B58EB000AFF860F6
:10330000B9607A603B6000237B63FB683B633B6B87
:10331000002B09D14FF0500383F31188BFF36F8F57
:10332000BFF34F8FBB62FEE7BB68002B03D13B6B43
:103330001B6C002B01D1012300E00023002B09D1DD
:103340004FF0500383F31188BFF36F8FBFF34F8F9C
:103350007B62FEE73B68022B03D13B6BDB6B012BEF
:1033600001D1012300E00023002B09D14FF05003CD
:1033700083F31188BFF36F8FBFF34F8F3B62FEE77C
:1033800001F064FA0346002B02D17B68002B01D1C7
:10339000012300E00023002B09D14FF0500383F3F9
:1033A0001188BFF36F8FBFF34F8FFB61FEE7FFF70D
:1033B00029FD3B6B9A6B3B6BDB6B9A4202D33B68FC
:1033C000022B29D1386BB9683A6800F01DFAF8620F
:1033D0003B6B5B6A002B10D03B6B2433184600F02C
:1033E000C3FF0346012B13D13D4B4FF080521A60AF
:1033F000BFF34F8FBFF36F8F0AE0FB6A002B07D03C
:10340000374B4FF080521A60BFF34F8FBFF36F8F6F
:10341000FFF726FD01235FE07B68002B03D1FFF758
:103420001FFD002358E07B6B002B06D107F114032E
:10343000184600F0FBFF01237B63FFF711FD00F04E
:103440003DFDFFF7DFFC3B6B5B6CB3F1FF3F02D14F
:103450003B6B00225A643B6B9B6CB3F1FF3F02D184
:103460003B6B00229A64FFF7FBFC07F114023B1D43
:103470001046194600F0FCFF0346002B24D1386BA0
:1034800000F0B8FA0346002B18D03B6B03F1100292
:103490007B681046194600F0CBFE386B00F048FA06
:1034A00000F01AFD0346002B15D10D4B4FF0805252
:1034B0001A60BFF34F8FBFF36F8F0CE0386B00F0D3
:1034C00037FA00F009FD72E7386B00F031FA00F0CE
:1034D00003FD002300E06AE718463837BD4680BD8B
:1034E00004ED00E080B58EB000AFF860B9607A609E
:1034F0003B60FB683B633B6B002B09D14FF05003F3
:1035000083F31188BFF36F8FBFF34F8FBB62FEE76A
:10351000BB68002B03D13B6B1B6C002B01D101233B
:1035200000E00023002B09D14FF0500383F31188F2
:10353000BFF36F8FBFF34F8F7B62FEE73B68022BB9
:1035400003D13B6BDB6B012B01D1012300E0002396
:10355000002B09D14FF0500383F31188BFF36F8F15
:10356000BFF34F8F3B62FEE7FFF716FDEFF31182CB
:103570004FF0500383F31188BFF36F8FBFF34F8F6A
:10358000FA61BB61FB69FB623B6B9A6B3B6BDB6B6C
:103590009A4202D33B68022B24D1386BB9683A684F
:1035A00000F032F93B6B9B6CB3F1FF3F12D13B6BE8
:1035B0005B6A002B13D03B6B2433184600F0D4FE1B
:1035C0000346002B0BD07B68002B08D07B680122C0
:1035D0001A6004E03B6B9B6C5A1C3B6B9A640123A2
:1035E0007B6301E000237B63FB6A7B617B6983F380
:1035F00011887B6B18463837BD4680BD80B58CB0CE
:1036000000AFF860B9607A603B600023FB62FB6842
:10361000BB62BB6A002B09D14FF0500383F31188C2
:10362000BFF36F8FBFF34F8F3B62FEE7BB68002B8A
:1036300003D1BB6A1B6C002B01D1012300E00023E6
:10364000002B09D14FF0500383F31188BFF36F8F24
:10365000BFF34F8FFB61FEE701F0F8F80346002B44
:1036600002D17B68002B01D1012300E00023002B55
:1036700009D14FF0500383F31188BFF36F8FBFF36D
:103680004F8FBB61FEE7FFF7BDFBBB6A9B6B002B57
:1036900047D0BB6ADB687B62B86AB96800F022F980
:1036A0003B68002B22D1BB6A9B6B5A1EBB6A9A6394
:1036B000BB6A1B68002B04D101F0E0F90246BB6A2B
:1036C0005A60BB6A1B69002B27D0BB6A10331846AF
:1036D00000F04AFE0346012B1FD14A4B4FF08052A7
:1036E0001A60BFF34F8FBFF36F8F16E0BB6A7A6A21
:1036F000DA60BB6A5B6A002B0FD0BB6A24331846C2
:1037000000F032FE0346002B07D03E4B4FF08052B4
:103710001A60BFF34F8FBFF36F8FFFF7A1FB012339
:103720006CE07B68002B03D1FFF79AFB002365E078
:10373000FB6A002B06D107F11003184600F076FE55
:103740000123FB62FFF78CFB00F0B8FBFFF75AFB8D
:10375000BB6A5B6CB3F1FF3F02D1BB6A00225A64C3
:10376000BB6A9B6CB3F1FF3F02D1BB6A00229A6433
:10377000FFF776FB07F110023B1D1046194600F0DB
:1037800077FE0346002B31D1B86A00F01DF90346DD
:10379000002B25D0BB6A1B68002B08D1FFF732FB3A
:1037A000BB6A5B68184601F06FF8FFF759FBBB6A0C
:1037B00003F124027B681046194600F039FDB86A0F
:1037C00000F0B6F800F088FB0346002B15D10D4B36
:1037D0004FF080521A60BFF34F8FBFF36F8F0CE032
:1037E000B86A00F0A5F800F077FB4CE7B86A00F083
:1037F0009FF800F071FB002300E044E718463037E3
:10380000BD4680BD04ED00E080B586B000AFF86035
:10381000B9607A6000237B61FB681B6C002B0DD1C3
:10382000FB681B68002B52D1FB685B68184601F0EF
:10383000A1F87861FB6800225A6048E07B68002BA1
:103840001AD1FB689A68FB681B6C1046B9681A4667
:1038500004F0D4FDFB689A68FB681B6C1A44FB6893
:103860009A60FB689A68FB685B689A422FD3FB6892
:103870001A68FB689A602AE0FB68DA68FB681B6CD0
:103880001046B9681A4604F0B9FDFB68DA68FB68AF
:103890001B6C5B421A44FB68DA60FB68DA68FB6801
:1038A0001B689A4207D2FB685A68FB681B6C5B4234
:1038B0001A44FB68DA607B68022B08D1FB689B6BBB
:1038C000002B04D0FB689B6B5A1EFB689A63FB6855
:1038D0009B6B5A1CFB689A637B6918461837BD4678
:1038E00080BD00BF80B582B000AF786039607B6872
:1038F0001B6C002B19D07B68DA687B681B6C1A4440
:103900007B68DA607B68DA687B685B689A4203D31D
:103910007B681A687B68DA607B68DA687B681B6C96
:10392000386811461A4604F069FD0837BD4680BD67
:1039300080B582B000AF7860FFF764FA14E07B686E
:103940005B6A002B0AD07B682433184600F00CFD1C
:103950000346002B03D000F0E9FD00E008E07B689F
:103960009B6C5A1E7B689A647B689B6C002BE6DC20
:103970007B684FF0FF329A64FFF772FAFFF742FA62
:1039800014E07B681B69002B0FD07B68103318464E
:1039900000F0EAFC0346002B01D000F0C7FD7B6875
:1039A0005B6C5A1E7B685A6400E003E07B685B6CCA
:1039B000002BE6DC7B684FF0FF325A64FFF750FAC9
:1039C0000837BD4680BD00BF80B584B000AF7860C9
:1039D000FFF718FA7B689B6B002B02D10123FB6079
:1039E00001E00023FB60FFF73BFAFB681846103745
:1039F000BD4680BD80B584B000AF7860FFF702FAA5
:103A00007B689A6B7B68DB6B9A4202D10123FB6077
:103A100001E00023FB60FFF723FAFB68184610372C
:103A2000BD4680BD80B485B000AF786039600023AA
:103A3000FB6014E00E4BFA6853F83230002B0BD1C8
:103A40000B4BFA68396843F83210094AFB68DB000F
:103A500013447A685A6005E0FB680133FB60FB6839
:103A6000072BE7D91437BD465DF8047B704700BFCC
:103A70000434FF1F80B586B000AFF860B9607A608B
:103A8000FB687B61FFF7BEF97B695B6CB3F1FF3FBD
:103A900002D17B6900225A647B699B6CB3F1FF3FC2
:103AA00002D17B6900229A64FFF7DAF97B699B6B8C
:103AB000002B06D17B6924331846B9687A6800F078
:103AC00005FC7869FFF734FF1837BD4680BD00BF9D
:103AD00080B58CB002AFF860B9603B601346FB80E4
:103AE000FB68002B09D14FF0500383F31188BFF31B
:103AF0006F8FBFF34F8FBB61FEE73B6B042B09D980
:103B00004FF0500383F31188BFF36F8FBFF34F8FD4
:103B10007B61FEE7FB881846B96B00F02BFE38622C
:103B20003B6A002B78D03B6A1A6BFB8803F1804319
:103B3000013B9B001344FB61FB6923F00703FB611E
:103B4000FB6903F00703002B09D04FF0500383F308
:103B50001188BFF36F8FBFF34F8F3B61FEE7FB8888
:103B60000093386AB9683A6BFB6B00F003FDF869A3
:103B7000F9683A68FFF74AF802463B6A1A607B6BBD
:103B8000002B02D07B6B3A6A1A60FFF73BF9314B8E
:103B90001B685A1C2F4B1A602F4B1B68002B09D136
:103BA0002D4B3A6A1A602B4B1B68012B0FD100F08A
:103BB00033FD0CE0294B1B68002B08D1264B1B68FA
:103BC000DA6A3B6B9A4202D8234B3A6A1A60244B5A
:103BD0001B685A1C224B1A60214B1A683B6A1A64F4
:103BE0003B6ADB6A01229A401E4B1B681A431D4B3D
:103BF0001A603B6ADA6A13469B0013449B001A4A18
:103C00001A443B6A043310461946FFF72DFA012384
:103C10007B62FFF725F902E04FF0FF337B627B6A9E
:103C2000012B11D10D4B1B68002B0DD00A4B1B68CB
:103C3000DA6A3B6B9A4207D20C4B4FF080521A6003
:103C4000BFF34F8FBFF36F8F7B6A18462837BD468F
:103C500080BD00BFA429FF1FCC28FF1FB029FF1F74
:103C6000C029FF1FAC29FF1FD028FF1F04ED00E073
:103C700080B586B000AF786000237B617B68002B45
:103C80002FD01F4B1B68002B09D04FF0500383F33C
:103C90001188BFF36F8FBFF34F8FFB60FEE700F01B
:103CA0000DF9184B1A687B6813443B61164B1B686F
:103CB00004331846FFF734FA0346002B0BD1124B9E
:103CC0001B68DB6A012202FA03F3DA430F4B1B681D
:103CD0001A400E4B1A60386900F016FD00F0FCF82F
:103CE00078617B69002B07D1094B4FF080521A6035
:103CF000BFF34F8FBFF36F8F1837BD4680BD00BF36
:103D0000C829FF1FA829FF1FCC28FF1FAC29FF1FB0
:103D100004ED00E080B584B000AF7860FFF772F882
:103D20007B68002B02D1374B1B6800E07B68FB608F
:103D3000FB6804331846FFF7F3F90346002B15D14F
:103D4000FB68DA6A304913469B0013449B000B441E
:103D50001B68002B0AD1FB68DB6A012202FA03F31D
:103D6000DA432A4B1B681A40284B1A60FB689B6A8F
:103D7000002B04D0FB6818331846FFF7D1F9FB6815
:103D8000043323481946FFF76FF9FFF769F81D4B15
:103D90001B68FA689A4227D11E4B1B68002B16D06D
:103DA0001D4B1B68002B09D04FF0500383F3118883
:103DB000BFF36F8FBFF34F8FBB60FEE7174B4FF022
:103DC00080521A60BFF34F8FBFF36F8F16E0104B16
:103DD0001A68134B1B689A4203D10A4B00221A60DF
:103DE0000CE000F0CBF909E00A4B1B68002B05D072
:103DF000FFF708F800F006FDFFF732F81037BD4670
:103E000080BD00BFCC28FF1FD028FF1FAC29FF1F9B
:103E10009029FF1FB029FF1FC829FF1F04ED00E0F4
:103E2000A429FF1F80B588B004AF002300930023AE
:103E3000019300230293002303931B481B495A223A
:103E40000023FFF745FEF860FB68012B02D100F06C
:103E500029FEF860FB68012B15D14FF0500383F366
:103E60001188BFF36F8FBFF34F8FBB60104B4FF0C4
:103E7000FF321A600F4B01221A600F4B00221A60AA
:103E8000FEF734FF0CE0FB68002B09D14FF0500324
:103E900083F31188BFF36F8FBFF34F8F7B60FEE713
:103EA0001037BD4680BD00BF45450000DC850000E1
:103EB000C429FF1FB029FF1FA829FF1F80B400AF2E
:103EC000044B1B685A1C034B1A60BD465DF8047B0B
:103ED000704700BFC829FF1F80B584B000AF002322
:103EE000FB603E4B1B68002B09D14FF0500383F35E
:103EF0001188BFF36F8FBFF34F8F7B60FEE7FEF734
:103F000081FF364B1B685A1E344B1A60334B1B68BB
:103F1000002B5BD1324B1B68002B57D02EE0314B6E
:103F2000DB68DB68BB60BB6818331846FFF7F8F83E
:103F3000BB6804331846FFF7F3F8BB68DB6A01225D
:103F40009A40294B1B681A43274B1A60BB68DA6AF0
:103F500013469B0013449B00244A1A44BB68043355
:103F600010461946FFF780F8BB68DA6A204B1B68D9
:103F7000DB6A9A4202D31F4B01221A60194B1B685D
:103F8000002BCCD11C4B1B68002B11D00CE000F097
:103F900047F80346002B02D0164B01221A60164B3D
:103FA0001B685A1E144B1A60134B1B68002BEED172
:103FB000104B1B68012B09D10123FB600F4B4FF005
:103FC00080521A60BFF34F8FBFF36F8FFEF748FF29
:103FD000FB6818461037BD4680BD00BFC829FF1FCB
:103FE000A429FF1F6429FF1FAC29FF1FD028FF1F32
:103FF000CC28FF1FB829FF1FB429FF1F04ED00E0E4
:1040000080B483B000AF054B1B687B607B681846AB
:104010000C37BD465DF8047B704700BFA829FF1F21
:1040200080B586B000AF00237B61494B1B68002B35
:104030007ED1484B1B685A1C464B1A60454B1B6887
:104040003B613B69002B1FD1434B1B681B68002B56
:1040500009D04FF0500383F31188BFF36F8FBFF384
:104060004F8F3B60FEE73C4B1B68FB603B4B1A6885
:10407000394B1A60394BFA681A60394B1B685A1C65
:10408000374B1A6000F0BEFB364B1B683A699A4208
:104090004DD3314B1B681B68002B01D1012300E07D
:1040A0000023002B04D02F4B4FF0FF321A603EE06C
:1040B000294B1B68DB68DB68BB60BB685B687B60A7
:1040C0003A697B689A4203D2264B7A681A602EE0DE
:1040D000BB6804331846FFF723F8BB689B6A002BC4
:1040E00004D0BB6818331846FFF71AF8BB68DB6AC0
:1040F00001229A401C4B1B681A431B4B1A60BB6879
:10410000DA6A13469B0013449B00184A1A44BB68A2
:10411000043310461946FEF7A7FFBB68DA6A144B52
:104120001B68DB6A9A4201D301237B61B1E704E09B
:10413000104B1B685A1C0F4B1A600F4B1B68002B4F
:1041400001D001237B617B6918461837BD4680BDCD
:10415000C829FF1FA829FF1F5C29FF1F6029FF1F17
:10416000BC29FF1FC429FF1FAC29FF1FD028FF1F38
:10417000CC28FF1FB429FF1FB829FF1F80B487B0C8
:1041800000AF264B1B68002B03D0254B01221A6081
:104190003EE0234B00221A60224B1B68FB60FB6849
:1041A000B3FA83F3FB72FB7AC3F11F037B611E49F1
:1041B0007A6913469B0013449B000B441B68002B39
:1041C00009D14FF0500383F31188BFF36F8FBFF312
:1041D0004F8F7B60FEE77A6913469B0013449B0078
:1041E000114A13443B613B695B685A683B695A60FA
:1041F0003B695A683B6908339A4204D13B695B6862
:104200005A683B695A603B695B68DA68074B1A6019
:104210001C37BD465DF8047B704700BFC829FF1FEF
:10422000B829FF1FAC29FF1FD028FF1FCC28FF1F74
:1042300080B584B000AF786039607B68002B09D10D
:104240004FF0500383F31188BFF36F8FBFF34F8F8D
:10425000BB60FEE7194B1B68183378681946FEF7F8
:1042600027FF164B1B6804331846FEF759FF034619
:10427000002B0BD1114B1B68DB6A012202FA03F3FE
:10428000DA430F4B1B681A400D4B1A603B68B3F1C1
:10429000FF3F07D1094B1B6804330A481946FEF754
:1042A000E3FE07E0084B1A683B681344FB60F868BC
:1042B00000F02AFA1037BD4680BD00BFCC28FF1F92
:1042C000AC29FF1F9029FF1FA829FF1F80B586B0CA
:1042D00000AFF860B9607A60FB68002B09D14FF03D
:1042E000500383F31188BFF36F8FBFF34F8F3B6190
:1042F000FEE7194B1B681833F8681946FEF7B4FE41
:10430000154B1B6804331846FEF70AFF0346002BC3
:104310000BD1114B1B68DB6A012202FA03F3DA436B
:104320000E4B1B681A400D4B1A607B68012B07D19E
:10433000094B1B6804330A481946FEF795FE07E04F
:10434000084B1A68BB6813447B61786900F0DCF99C
:104350001837BD4680BD00BFCC28FF1FAC29FF1F0A
:104360009029FF1FA829FF1F80B586B000AF786095
:104370007B68DB68DB683B613B69002B09D14FF050
:10438000500383F31188BFF36F8FBFF34F8FFB6030
:10439000FEE73B6918331846FEF7C2FE1D4B1B684B
:1043A000002B1CD13B6904331846FEF7B9FE3B696C
:1043B000DB6A01229A40184B1B681A43164B1A609D
:1043C0003B69DA6A13469B0013449B00134A1A4464
:1043D0003B69043310461946FEF746FE05E03B698B
:1043E00018330F481946FEF73FFE3B69DA6A0D4B5A
:1043F0001B68DB6A9A4205D901237B610A4B0122C3
:104400001A6001E000237B617B6918461837BD46BE
:1044100080BD00BFC829FF1FAC29FF1FD028FF1F88
:104420006429FF1FCC28FF1FB829FF1F80B485B067
:1044300000AF78607B68002B09D14FF0500383F305
:104440001188BFF36F8FBFF34F8FFB60FEE7064B02
:104450001A687B681A60054B1A687B685A601437C3
:10446000BD465DF8047B7047BC29FF1FA829FF1FCC
:1044700080B586B000AF786039607B68002B09D1C9
:104480004FF0500383F31188BFF36F8FBFF34F8F4B
:10449000FB60FEE73B68002B09D14FF0500383F32C
:1044A0001188BFF36F8FBFF34F8FBB60FEE7FEF73E
:1044B000A9FC1C4B1B683B613B681B68B3F1FF3FC9
:1044C00002D100237B6126E07B681A68164B1B68CB
:1044D0009A4207D07B685A683B699A4202D8012306
:1044E0007B6118E07B685B683A69D21A3B681B689D
:1044F0009A420ED23B681A687B6859683B69CB1AAE
:104500001A443B681A607868FFF790FF00237B61CC
:1045100001E001237B61FEF7A3FC7B691846183795
:10452000BD4680BDA829FF1FBC29FF1F80B400AF76
:10453000034B01221A60BD465DF8047B704700BF43
:10454000B829FF1F80B582B000AF786000F0A2F8F4
:10455000064B1B68012B07D9054B4FF080521A60A0
:10456000BFF34F8FBFF36F8FF0E700BFD028FF1F5F
:1045700004ED00E080B586B000AFF860B9607A6005
:104580003B6000237B6112E0BA687B6913441A78B0
:10459000F9687B690B4430331A71BA687B6913443C
:1045A0001B78002B00D105E07B6901337B617B69BF
:1045B000092BE9D9FB68002283F83D207B68042B96
:1045C00001D904237B60FB687A68DA62FB687A6849
:1045D0009A64FB680022DA64FB6804331846FEF72D
:1045E00037FDFB6818331846FEF732FDFB68FA68A2
:1045F0001A617B68C3F10502FB689A61FB68FA687F
:104600005A62FB6800221A65FB68002283F8542076
:104610001837BD4680BD00BF80B582B000AF002313
:104620007B600CE07A6813469B0013449B00114AA0
:1046300013441846FEF7ECFC7B6801337B607B6813
:10464000042BEFD90C48FEF7E3FC0C48FEF7E0FC26
:104650000B48FEF7DDFC0B48FEF7DAFC0A48FEF7D4
:10466000D7FC0A4B044A1A60094B044A1A600837FF
:10467000BD4680BDD028FF1F3429FF1F4829FF1FDA
:104680006429FF1F7829FF1F9029FF1F5C29FF1F46
:104690006029FF1F80B582B000AF28E0FFF70EFC55
:1046A000164B1B68002B14BF00230123DBB27B6079
:1046B000FFF712FC7B68002B19D1FEF7A3FB0F4B11
:1046C000DB68DB683B603B6804331846FEF728FD77
:1046D0000B4B1B685A1E0A4B1A600A4B1B685A1E6A
:1046E000084B1A60FEF7BCFB386800F07BF8054BFE
:1046F0001B68002BD2D10837BD4680BD7829FF1F2B
:10470000A429FF1F8C29FF1F80B582B000AF7860FD
:10471000134B1B687A685A60124B1B687A689A427E
:1047200009D2114B1A680E4B1B6804331046194608
:10473000FEF7BEFC10E00D4B1A68094B1B680433F2
:1047400010461946FEF7B4FC094B1B687A689A427A
:1047500002D2074B7A681A600837BD4680BD00BF99
:10476000CC28FF1FA829FF1F6029FF1F5C29FF1FFE
:10477000C429FF1F80B584B000AF03463960FB80B9
:104780003B68002B06D1FB889B001846FEF76AF8B1
:10479000034600E03B68BB60BB68002B0ED058208E
:1047A000FEF760F8F860FB68002B03D0FB68BA687E
:1047B0001A6305E0B868FEF717F901E00023FB6013
:1047C000FB68002B08D0FB681A6BFB889B00104627
:1047D000A5211A4603F01BFEFB6818461037BD469C
:1047E00080BD00BF80B582B000AF78607B681B6B76
:1047F0001846FEF7F9F87868FEF7F6F80837BD4670
:1048000080BD00BF80B483B000AF0E4B1B681B6837
:10481000002B01D1012300E00023002B04D00A4B20
:104820004FF0FF321A6008E0064B1B68DB68DB685C
:104830007B607B685A68044B1A600C37BD465DF894
:10484000047B70475C29FF1FC429FF1F80B483B01D
:1048500000AF0B4B1B68002B02D101237B6008E0EB
:10486000084B1B68002B02D102237B6001E0002370
:104870007B607B6818460C37BD465DF8047B70474B
:10488000B029FF1FC829FF1F80B584B000AF786032
:104890007B68FB607B68002B62D0FB68DA6A324B76
:1048A0001B68DB6A9A425BD2FB689B69002B06DBC4
:1048B0002D4B1B68DB6AC3F10502FB689A61FB683C
:1048C0005969FB68DA6A13469B0013449B00274A28
:1048D0001344994201D1012300E00023002B3AD078
:1048E000FB6804331846FEF71BFC0346002B15D16A
:1048F000FB68DA6A1D4913469B0013449B000B4476
:104900001B68002B0AD1FB68DB6A012202FA03F361
:10491000DA43174B1B681A40154B1A60124B1B6881
:10492000DA6AFB68DA62FB68DB6A01229A40104BA4
:104930001B681A430E4B1A60FB68DA6A13469B0029
:1049400013449B00094A1A44FB6804331046194675
:10495000FEF78AFB04E0044B1B68DA6AFB68DA6244
:104960001037BD4680BD00BFCC28FF1FD028FF1FD9
:10497000AC29FF1F80B586B000AF78607B683B61D3
:1049800000237B617B68002B6CD0394B1B683A6934
:104990009A4209D04FF0500383F31188BFF36F8F11
:1049A000BFF34F8FFB60FEE73B69DB6C002B09D147
:1049B0004FF0500383F31188BFF36F8FBFF34F8F16
:1049C000BB60FEE73B69DB6C5A1E3B69DA643B69FE
:1049D000DA6A3B699B6C9A4244D03B69DB6C002BE2
:1049E00040D13B6904331846FEF79AFB0346002B7F
:1049F00015D13B69DA6A1F4913469B0013449B009B
:104A00000B441B68002B0AD13B69DB6A012202FAC6
:104A100003F3DA43184B1B681A40174B1A603B69C3
:104A20009A6C3B69DA623B69DB6AC3F105023B6958
:104A30009A613B69DB6A01229A400F4B1B681A435B
:104A40000D4B1A603B69DA6A13469B0013449B00C6
:104A5000084A1A443B69043310461946FEF704FB22
:104A600001237B617B6918461837BD4680BD00BFB6
:104A7000CC28FF1FD028FF1FAC29FF1F80B400AF38
:104A8000074B1B68002B04D0054B1B68DA6C013206
:104A9000DA64034B1B681846BD465DF8047B70471B
:104AA000CC28FF1F80B586B004AF00237B6000F0E8
:104AB00099FA124B1B68002B0ED00223009300239F
:104AC000019300230293002303930D480D49B42260
:104AD0000023FEF7FDFF78607B68002B09D14FF0C3
:104AE000500383F31188BFF36F8FBFF34F8F3B6089
:104AF000FEE77B6818460837BD4680BDFC29FF1FCE
:104B00002D4C0000E485000080B58AB000AFF8604D
:104B1000B9607A603B6000237B62FB68002B09D19F
:104B20004FF0500383F31188BFF36F8FBFF34F8FA4
:104B30003B62FEE71C4B1B68002B30D0BB687B61DF
:104B40007B68BB61FB68FB61BB68052B1CDCFFF766
:104B50007DFE0346022B0BD1134B1A6807F1140399
:104B6000104619463A6B0023FEF7C6FB786216E042
:104B70000D4B1A6807F11403104619460022002352
:104B8000FEF7BAFB78620AE0074B1A6807F11403D4
:104B9000104619463A680023FEF7A4FC78627B6A47
:104BA00018462837BD4680BDFC29FF1F80B588B058
:104BB00002AF786039601C4B1B68DB68DB687B6187
:104BC0007B6904331846FEF7ABFA7B69DB69012B7E
:104BD00022D17B699A697B681344786919463A68DF
:104BE0007B6800F0C7F80346012B15D10023009322
:104BF000786900217A680023FFF786FF38613B69F6
:104C0000002B09D14FF0500383F31188BFF36F8F4E
:104C1000BFF34F8FFB60FEE77B695B6A786998475B
:104C20001837BD4680BD00BFF429FF1F80B584B092
:104C300000AF786007F10803184600F057F8F860F5
:104C4000BB68F868194600F003F800F0D5F8F1E702
:104C500080B584B000AF78603960FFF72FF907F1B5
:104C60000803184600F066F8F860BB68002B31D1E5
:104C70003B68002B0AD17A68FB689A4206D8FFF796
:104C80002BF97868F968FFF791FF25E03B68002B66
:104C900008D0134B1B681B68002B14BF0023012393
:104CA000DBB23B600F4B1A687968FB68CB1A104681
:104CB00019463A68FEF7DEFEFFF70EF90346002BB1
:104CC0000AD1094B4FF080521A60BFF34F8FBFF3E8
:104CD0006F8F01E0FFF700F91037BD4680BD00BFC0
:104CE000F829FF1FFC29FF1F04ED00E080B485B008
:104CF00000AF78600E4B1B681B68002B14BF0023AD
:104D00000123DBB21A467B681A607B681B68002BA4
:104D100005D1074B1B68DB681B68FB6001E00023C3
:104D2000FB60FB6818461437BD465DF8047B70478E
:104D3000F429FF1F80B584B000AF7860FFF760F9F9
:104D4000F8600B4B1B68FA689A4205D200F0EAF84B
:104D50007B6801221A6002E07B6800221A60044B23
:104D6000FA681A60FB6818461037BD4680BD00BF60
:104D7000002AFF1F80B586B000AFF860B9607A6086
:104D80003B6000237B61FB68BA685A60FB68FA6885
:104D90001A61BA687B689A4212D87A683B68D21A5C
:104DA000FB689B699A4202D301237B611BE0104B95
:104DB0001A68FB68043310461946FEF779F912E0C9
:104DC0007A683B689A4206D2BA683B689A4202D334
:104DD00001237B6107E0074B1A68FB680433104628
:104DE0001946FEF765F97B6918461837BD4680BD40
:104DF000F829FF1FF429FF1F80B58CB002AF7EE0B9
:104E0000BB68002B7BDB3B697B627B6A5B69002BA9
:104E100004D07B6A04331846FEF782F93B1D18461E
:104E2000FFF788FF3862BB68092B67D801A252F8E8
:104E300023F000BF5D4E00005D4E00005D4E00009F
:104E4000FD4E0000BD4E0000F54E00005D4E00001E
:104E50005D4E0000FD4E0000BD4E0000FA687B6A0A
:104E60009B691A44FB68786A11463A6AFFF782FF29
:104E70000346012B21D17B6A5B6A786A98477B6A7B
:104E8000DB69012B19D1FA687B6A9B691344002204
:104E90000092786A00211A460023FFF735FEF86178
:104EA000FB69002B09D14FF0500383F31188BFF346
:104EB0006F8FBFF34F8FBB61FEE720E0FA687B6A1C
:104EC0009A617B6A9B69002B09D14FF0500383F3F1
:104ED0001188BFF36F8FBFF34F8F7B61FEE77B6A53
:104EE0009A693B6A1344786A19463A6A3B6AFFF743
:104EF00041FF04E0786AFDF777FD00E000BF084B52
:104F00001A6807F108031046194600220023FEF72D
:104F100075FB0346002B7FF473AF2837BD4680BD79
:104F2000FC29FF1F80B588B002AF44E02B4B1B6803
:104F3000DB681B687B61294B1B68DB68DB683B61B6
:104F40003B6904331846FEF7EBF83B695B6A386946
:104F500098473B69DB69012B2DD13B699A697B69D5
:104F60001344FB60FA687B699A420ED93B69FA6880
:104F70005A603B693A691A61184B1A683B690433F5
:104F800010461946FEF794F815E00023009338699F
:104F900000217A690023FFF7B7FDB860BB68002BDA
:104FA00009D14FF0500383F31188BFF36F8FBFF324
:104FB0004F8F3B60FEE7094B1B681B68002BB5D188
:104FC000064B1B687B60064B1A68044B1A60044B47
:104FD0007A681A601837BD4680BD00BFF429FF1FEC
:104FE000F829FF1F80B582B000AFFDF70BFF1A4B09
:104FF0001B68002B2BD11948FEF70AF81848FEF75A
:1050000007F8184B154A1A60174B154A1A600A2000
:105010000C210022FEF716F902460F4B1A600E4BC8
:105020001B68002B09D14FF0500383F31188BFF3A5
:105030006F8FBFF34F8F7B60FEE7074B1B68002B22
:1050400005D0054B1B6818460849FEF7EBFCFDF739
:1050500007FF0837BD4680BDFC29FF1FCC29FF1F75
:10506000E029FF1FF429FF1FF829FF1FEC8500002E
:1050700080B483B000AF7860074B074A126822F40F
:1050800040217A68920402F440220A431A600C37E5
:10509000BD465DF8047B70470070044080B483B067
:1050A00000AF78600A490A4B03F5805304331B684C
:1050B00023F440327B681B0403F440331A4301F5A8
:1050C000805304331A600C37BD465DF8047B70478B
:1050D0000070044080B485B000AF786039607B68B0
:1050E0001B78FB73FB7B03F05F03FB733B681A7851
:1050F000FB7B1343FB737B68FA7B1A703B685B781E
:105100009B01DAB27B689A701437BD465DF8047B68
:10511000704700BF80B485B000AF78600B46FB706D
:105120007B681B78FB73FB7B23F00F03FB73FA7B1D
:10513000FB781343FB737B68FA7B1A701437BD4608
:105140005DF8047B704700BF80B582B000AF194B9B
:105150001B7BDBB203F00303012B12D0012B02D324
:10516000022B1CD01EE0144B1B68002B05D11348EA
:10517000D621134A134B00F093FB0F4B1B687B6047
:1051800013E0114B1B68002B05D10C48DB210C4AA6
:105190000E4B00F085FB0C4B1B687B6005E00C4B55
:1051A0007B6002E000237B6000BF7B681846083705
:1051B000BD4680BD004006404834FF1FF485000016
:1051C000048B00000C8600004434FF1F188600008A
:1051D000006CDC0280B582B000AFFFF7B5FF7860ED
:1051E0007B68002B01D17B684EE0294B1B78DBB23A
:1051F00003F03803DB08FB70FB787A6822FA03F3CC
:105200007B60234B5B78DBB203F030031B09BB7080
:105210001F4B1B7BDBB203F003037B70BB78002BBF
:1052200002D07B78002B02D07B78022B2BD1FB782D
:10523000072B25D801A151F823F000BF5D520000D3
:105240005D5200005D5200005D5200005D520000A2
:105250005D52000065520000735200007B685B09DC
:105260007B6010E07A680B4BA3FB02131B097B6089
:1052700009E07A68084BA3FB0213DB087B6002E0BD
:1052800000237B6000BF7B6818460837BD4680BDA1
:1052900000400640CDCCCCCCABAAAAAA80B400AFCB
:1052A0000C4B9B79DBB203F00103002B02D10A4BBC
:1052B0001B6809E0094B1A68064B1B7ADBB203F046
:1052C0000E035B0822FA03F31846BD465DF8047B23
:1052D000704700BF004006400800FF1F0C00FF1F82
:1052E00080B500AF074B9B79DBB203F010031B09BD
:1052F000002B03D1FFF76EFF034601E0024B1B6852
:10530000184680BD004006400800FF1F80B500AF72
:10531000FFF71AFF0346184680BD00BF80B485B072
:1053200000AF78607A6849F697039A4202D8002362
:10533000FB7308E07A68074B9A4202D80123FB739B
:1053400001E00223FB73FB7B18461437BD465DF872
:10535000047B704700127A0080B500AF00F028F897
:105360000246054B03F5825304331B681B0F0133C0
:10537000B2FBF3F3184680BD0070044080B582B0E4
:1053800000AF7860094B7A68526803F582530433A2
:105390001A607B681B781846FFF780FE7B685B7895
:1053A0001846FFF765FE0837BD4680BD0070044013
:1053B00080B582B000AF164B9B79DBB203F00C03D3
:1053C0009B083B603B68032B1AD801A252F823F0DC
:1053D000E9530000F1530000F9530000E1530000CD
:1053E00000F052F878600EE000F014F878600AE0FF
:1053F000FFF754FF786006E0FFF7A6FE786002E052
:1054000000237B6000BF7B6818460837BD4680BD1F
:105410000040064080B582B000AF194B5B78DBB22C
:1054200003F00203002B06D1154B9B79DBB203F08E
:105430002003002B01D000231DE0FFF751FF78600F
:105440007B68002B01D17B6815E00D4BDB78DBB26C
:1054500003F060035B09FB70094BDB78DBB2DB090F
:10546000BB70F978BA78074B49000A4433F8123018
:105470007A6802FB03F318460837BD4680BD00BFBB
:10548000004006401C8B000080B582B000AF134B7B
:105490009B79DBB203F04003002B01D1002318E01D
:1054A000FFF734FF78600D4B1B79DBB203F01F036D
:1054B00001337A68B2FBF3F37B60084B5B79DBB2B4
:1054C00003F01F0303F118027B6802FB03F37B6008
:1054D0007B6818460837BD4680BD00BF00400640C7
:1054E00080B485B000AF0346FB71204B1B7BDBB261
:1054F00003F00302FB799A4202D00123FB7301E01F
:105500000023FB73194B194A127BD2B222F003021B
:10551000D1B2FA7902F00302D2B20A43D2B21A73BC
:10552000FB79002B0ED1114B5B78DBB203F0040347
:10553000002B07D000BF0D4B9B79DBB203F00203B9
:10554000002BF8D0FB7B002B09D040F2DC53BB6072
:1055500000E000BFBB685A1EBA60002BF9D10023DF
:1055600018461437BD465DF8047B7047004006407E
:1055700080B485B000AF13460246FA710A46BA718C
:105580007B713B4B9B79DBB203F00C039B08FB6008
:10559000374B9B79DBB203F00103FB72344B1B7A70
:1055A000DBB203F00E035B08BB727A79BB7A9A42D6
:1055B0002CD0FB7A012B19D1FB68012B06D02C4B88
:1055C0001B78DBB203F00203002B0FD0284B284AD4
:1055D0005278D2B222F00102D2B25A7000BF244BEC
:1055E0009B79DBB203F00103002BF8D1204B204A5A
:1055F000127AD2B222F02F02D1B27A795200D2B20C
:1056000002F00E02D2B20A43D2B21A72184B184AF2
:105610005278D2B222F00102D1B2BA7902F001027C
:10562000D2B20A43D2B25A70114B114A1278D2B296
:1056300022F00302D1B2FA790A43D2B21A70FB689F
:10564000012B04D0FB7903F00203002B08D000BF2C
:10565000074B9B79DBB203F00102BB799A42F7D189
:10566000002318461437BD465DF8047B704700BF21
:105670000040064080B584B000AF78607B68002BA6
:1056800006D11D4840F259311C4A1D4B00F008F963
:105690000023FB737B685B7803F01F03DAB2FB7BAC
:1056A0001343FB73174BFA7B1A71164B154A527949
:1056B000D2B222F01F02D1B27A68927802F01F02B1
:1056C000D2B20A43D2B25A710E4B0E4A1279D1B2FB
:1056D0007A6812780A43D2B242F04002D2B21A710A
:1056E00000BF084B9B79DBB203F04003002BF8D0DE
:1056F0001037BD4680BD00BFF48500002C8B000034
:10570000288600000040064080B584B000AF786075
:105710007B681B681846FFF701FE0346FB737B6836
:105720001B791A481946FFF7F5FC7B6806331748C2
:105730001946FFF7CFFC164B154A5278D2B222F029
:105740003C02D1B2FA7B1201D2B202F03002D2B2E4
:105750000A43D1B27A6852790A43D2B25A707B684E
:105760005B79002B0ED0094B1B78DBB2DBB25BB24E
:10577000002B07DA00BF064B9B79DBB203F0020374
:10578000002BF8D01037BD4680BD00BF005006404A
:105790000040064080B582B000AF03463960FB711F
:1057A000214B214A5278D2B222F00202D2B25A7070
:1057B0001D4B1D4A1278D2B202F03B02D2B262F007
:1057C0007F02D2B21A7000BF174B9B79DBB203F095
:1057D0001C03082BF8D1144B134A5279D2B222F091
:1057E0004002D2B25A7100BF0F4B9B79DBB203F07B
:1057F0002003002BF8D13868FFF73CFF0A4B0A4A18
:105800005279D2B242F04002D2B25A7100BF064B76
:105810009B79DBB203F02003002BF8D0002318465D
:105820000837BD4680BD00BF0040064080B582B04D
:1058300000AF0B463A600246FA71BB713B68002B21
:1058400006D1134840F26A61124A134B00F028F85F
:10585000FB791846FFF744FEBB7918463968FFF715
:1058600099FF0E4B0D4A1278D2B202F03F02D2B22B
:105870001A7000BF094B9B79DBB203F00C039B0845
:10588000032BF7D1002318460837BD4680BD00BF63
:10589000F4850000408B0000288600000040064090
:1058A00080B586B002AFF860B9607A603B607B6813
:1058B000009304483968FA68BB68FBF76FFF00BEC5
:1058C000FDE700BF3086000080B483B000AF786091
:1058D0007B681B68DB0FDBB218460C37BD465DF8F2
:1058E000047B704780B582B000AF7860396078681B
:1058F000FFF7EAFF0346002B05D0074B1B687868CB
:105900003968984704E0054B1B6878683968984700
:105910000837BD4680BD00BF0C2AFF1F102AFF1F9D
:1059200080B500AF084B1B68002B06D1074840F23A
:105930004C61074A074BFFF7B3FF034B1B68064850
:105940001946FFF7CFFF80BD042AFF1F70860000B5
:10595000548B0000E086000000C0024080B500AF1C
:10596000084B5B68002B06D1074840F25461074A98
:10597000074BFFF795FF034B5B6806481946FFF797
:10598000B1FF80BD042AFF1F708600006C8B0000F1
:10599000F086000000D0024090B589B000AF78607A
:1059A0007B68002B06D14E484FF44E714D4A4E4B4A
:1059B000FFF776FF7B689B687A68127CDA777B68F2
:1059C000DB68002B09D17B681C687B685B687868A2
:1059D000194601220023A0477EE07B689A687B6815
:1059E0001B7C5B01134403F5805318331B687B61F8
:1059F0007B689A687B681B7C5B01134403F58053CA
:105A000018339B889BB203F08003002B0CBF00234C
:105A10000123FB747B68DB687A69D31A7B617B693D
:105A20005B09FB60FB7C002B02D0FB68FB760EE081
:105A3000FB68002B04D0FB68DBB2013BDBB205E066
:105A40007B681B7DDBB2DBB2013BDBB2FB76FA7E0F
:105A50007B685B7CDBB25BB29A4212D17B68DB7CF9
:105A6000DAB27B681B7DDBB252B25BB29A4205D1DF
:105A70007B68DB7CDBB25BB2FB6113E00023FB6184
:105A800010E0FA7E7B685B7CDBB25BB2D31AFB6111
:105A9000FB69002B06DA7B681B7DDBB25BB2FA691F
:105AA0001344FB61FA7E7B685A747B68DB7CDBB253
:105AB000DAB2FB69DBB2D31ADBB2DAB27B68DA7432
:105AC0007B681B68002B07D07B681C687B68596863
:105AD000FB69FA7C7868A0472437BD4690BD00BFBB
:105AE00000870000848B0000FC87000080B500AFB9
:105AF000024B1B681846FFF74FFF80BD142AFF1F9B
:105B000080B500AF024B5B681846FFF745FF80BDCC
:105B1000142AFF1F80B500AF024B9B681846FFF7A1
:105B20003BFF80BD142AFF1F80B500AF024BDB682E
:105B30001846FFF731FF80BD142AFF1F80B500AF64
:105B4000024B1B691846FFF727FF80BD142AFF1F71
:105B500080B500AF024B5B691846FFF71DFF80BDA3
:105B6000142AFF1F80B500AF024B9B691846FFF750
:105B700013FF80BD142AFF1F80B500AF024BDB6905
:105B80001846FFF709FF80BD142AFF1F80B500AF3C
:105B9000024B1B6A1846FFF7FFFE80BD142AFF1F49
:105BA00080B500AF024B5B6A1846FFF7F5FE80BD7B
:105BB000142AFF1F80B500AF024B9B6A1846FFF7FF
:105BC000EBFE80BD142AFF1F80B500AF024BDB6ADD
:105BD0001846FFF7E1FE80BD142AFF1F80B500AF15
:105BE000024B1B6B1846FFF7D7FE80BD142AFF1F20
:105BF00080B500AF024B5B6B1846FFF7CDFE80BD52
:105C0000142AFF1F80B500AF024B9B6B1846FFF7AD
:105C1000C3FE80BD142AFF1F80B500AF024BDB6BB3
:105C20001846FFF7B9FE80BD142AFF1F80B485B067
:105C300000AFF860B9601346FB71FB79002B07D108
:105C4000BB68012202FA03F31A46FB689A6006E079
:105C5000BB68012202FA03F31A46FB685A60143744
:105C6000BD465DF8047B704780B584B000AFF86036
:105C7000B9607A607B68002B05D114484B21144A27
:105C8000144BFFF70DFE7B681B78002B0AD1FB68D5
:105C90005A69BB68012101FA03F3DB431A40FB6830
:105CA0005A610FE07B685B78F868B9681A46FFF7BD
:105CB000BDFFFB685A69BB68012101FA03F31A436F
:105CC000FB685A611037BD4680BD00BF38890000AF
:105CD000948B00007889000080B582B000AF7860B6
:105CE00039607B68DB78DBB203F01003002B06D150
:105CF0007B689B78DBB203F02003002B05D0074BB9
:105D00001B6878683968984704E0054B1B68786819
:105D1000396898470837BD4680BD00BF5C2AFF1F21
:105D2000602AFF1F80B500AF034B1B68034819466C
:105D3000FFF7D2FF80BD00BF542AFF1F006006405E
:105D400080B500AF034B5B6803481946FFF7C4FFFB
:105D500080BD00BF542AFF1F0070064080B485B08C
:105D600000AF78607B681B0C03F1804303F58E2342
:105D7000FB60FB68FA6811687A6892B2012000FA49
:105D800002F20A431A601437BD465DF8047B70477F
:105D900080B584B000AF78600023FB6007E00C4A58
:105DA0007B689A4200D105E0FB680133FB60FB6829
